:020000020000FC
:10000000FFEFFDBFF8E0FEBF2F933F932091C100AB
:1000100028E12093C1002091C20026602093C200F5
:1000200020E037E62093C5003093C4003F912F9124
:1000300000E350E027D009D01091C00017FD0EC09A
:1000400028D016D02CD00395F5DF1F931091C00057
:1000500015FFFBCF0093C6001F9108951F931091C9
:10006000C0005091C60010E21093C0001F91089587
:10007000B1E0A4E0D3E5BA95F1F7AA95E1F7DA95F6
:10008000D1F708954F9308334FB742FF00E34F91E4
:1000900008951F931FEF14B955B91F9108951F9329
:0A00A000112715B91F91E4DF089540
:00000001FF
