:020000020000FC
:10000000FFEFFDBFF8E0FEBF2F933F932091C100AB
:1000100028E12093C1002091C20026602093C200F5
:1000200020E037E62093C5003093C4003F912F9124
:1000300000E350E060E86093C000662766E06093EC
:10004000C60026D009D01091C00017FD0EC027D0E1
:1000500015D02BD00395F5DF1F931091C00015FF2D
:10006000FBCF0093C6001F9108951F931091C0000D
:1000700017FFFBCF5091C6001F910895B1E0A4E097
:10008000D3E5BA95F1F7AA95E1F7DA95D1F7089596
:100090004F9308334FB742FF00E34F9108951F93EA
:1000A0001FEF14B905B91F9108951F93112715B9B2
:0600B0001F91E4DF08953A
:00000001FF
