:020000020000FC
:100000007FEF7DBF78E07EBF2F933F932091C100AB
:1000100028E12093C1002091C20026602093C200F5
:1000200020E037E62093C5003093C4003F912F9124
:1000300000E01091C000077006D01BD010D01FD078
:100040000ED00395F6DF1F931091C00015FFFBCF74
:100050000093C6001F9108950091C600089551E0D5
:1000600064E073E55A95F1F76A95E1F77A95D1F76F
:1000700008951F9317E014B905B91F9108951F93B0
:08008000112715B91F91089525
:00000001FF
