:020000020000FC
:10000000FFEFFDBFF8E0FEBF2F933F932091C100AB
:1000100028E12093C1002091C20026602093C200F5
:1000200020E037E62093C5003093C4003F912F9124
:1000300000E01091C00017FD0EC01FD014D023D0D7
:1000400012D0F7DF1F931091C00015FFFBCF009374
:10005000C6001F9108951F931091C0000091C60023
:100060001F91F0CF0895B1E0A4E0D3E5BA95F1F780
:10007000AA95E1F7DA95D1F708951F931FEF14B908
:1000800005B91F9108951F93112715B91F91089560
:00000001FF
