:100000000C9434000C943E000C943E000C943E0082
:100010000C943E000C943E000C943E000C943E0068
:100020000C943E000C943E000C943E000C943E0058
:100030000C943E000C943E000C943E000C943E0048
:100040000C943E000C943E000C943E000C943E0038
:100050000C943E000C943E000C943E000C943E0028
:100060000C943E000C943E0011241FBECFEFD8E04C
:10007000DEBFCDBF0E9455000C9464000C940000BC
:1000800028EE33E0AC01429FC001439F900D529F88
:10009000900D1124009741F0EFE9FFE03197F1F75F
:1000A00000C000000197F6CF08958FEF84B995B195
:1000B00081E0892785B9C1E281E090E00E9440009B
:0C00C00085B18C2785B9F8CFF894FFCFEC
:00000001FF
