:100000000C9434000C9449000C9449000C94490061
:100010000C9449000C9449000C9449000C9449003C
:100020000C9449000C9449000C9449000C9449002C
:100030000C9449000C9449000C9449000C9449001C
:100040000C9449000C9449000C9449000C9449000C
:100050000C9449000C9449000C9449000C944900FC
:100060000C9449000C94490011241FBECFEFD8E036
:10007000DEBFCDBF13E0A0E0B1E0E8E6F2E002C0F1
:1000800005900D92AA33B107D9F70E94C8000C94CD
:1000900032010C940000E1ECF0E080818861808303
:1000A000E2ECF0E080818660808387E68093C40084
:1000B0001092C5008AE08AB90895FC0191919923B4
:1000C00039F08091C00085FFFCCF9093C600F6CF39
:1000D0000895FC0180818A3011F410820895DF01B7
:1000E00011978C918D30C9F38091C00087FFFCCFB0
:1000F0008091C6008193EECF80E992E00C945D0080
:10010000CF93DF93EC0184ED92E00E945D006EEDF1
:1001100072E0CE010E941801892B59F0199B03C08F
:1001200081EE92E002C082EF92E0DF91CF910C94D9
:100130005D0062E073E0CE010E941801892B41F05E
:100140001B9B03C086E093E0F0CF88E193E0EDCF06
:10015000DF91CF910C947C00CF93DF93EC0169E2A7
:1001600073E00E941801892B29F0CE01DF91CF9115
:100170000C9480006FE273E0CE010E941801892B7D
:1001800021F4DF91CF910C947C00DF91CF91089501
:10019000CF93DF93CDB7DEB7C359D1400FB6F894F4
:1001A000DEBF0FBECDBF8CE291E0E0E0F1E0DE010A
:1001B000119601900D920197E1F78091360390918D
:1001C0003703A0913803CF56DE4F88839983AA83E3
:1001D000C159D14080912C0290912D02FE01E35D26
:1001E000FE4F8193919382E6DF011D928A95E9F794
:1001F0000E944B00CE0101960E945D00CE018B59FA
:100200009F4F0E945D00CE0187539F4F0E945D006B
:10021000CE018F569E4F0E945D00CE01835D9E4FA2
:100220000E946900CE01835D9E4F0E94AC00F0CF1A
:10023000FB0151915523A9F0BF01DC014D914517F8
:100240004111E1F759F4CD010190002049F04D91A1
:1002500040154111C9F3FB014111EFCF81E090E05E
:0802600001970895F894FFCF07
:100268000A434F4D4D414E44090950494E5F4E5582
:100278004D090953544154450D0A0000000000007F
:100288000000000000000000000000000000000066
:100298000000000000000000000000000000000056
:1002A8000000000000000000000000000000000046
:1002B8000000000000000000000000000000000036
:1002C80000000000524541440909392F313109091C
:1002D8002D0D0A00000000000000000000000000D2
:1002E8000000000000000000000000000000000006
:1002F80000000000000000000000000000000000F6
:1003080000000000000000000000000000000000E5
:1003180000000000000000000000000000000000D5
:1003280000000000000000005752495445090938F0
:100338002F31300909484947482F4C4F570D0A00BB
:1003480000000000000000000000000000000000A5
:100358000000000000000000000000000000000095
:100368000000000000000000000000000000000085
:100378000000000000000000000000000000000075
:100388000000000000000000000000000000000065
:100398000000000000000000000000000000000055
:1003A8000000000000000000000000000000000045
:1003B8000000000000000000000000000000000035
:1003C8000000000000000000000000000000000025
:1003D8000000000000000000000000000000000015
:1003E8000000000000000000000000000000000005
:1003F800494E56414C49442053544154452E2043BC
:100408006F6D6D616E642073747275637475726557
:100418003A20524541442F285752495445292050E3
:10042800494E5F4E554D2028484947482F4C4F5755
:10043800290D0A00496E20726561640D0A00203991
:100448000050696E203920726561647320484947FD
:10045800480050696E2039207265616473204C4FE2
:1004680057002031310050696E20313120726561AA
:10047800647320484947480050696E203131207222
:1004880065616473204C4F57005245414420005722
:0A0498005249544520003E3E00008A
:00000001FF
