:100000000C9434000C9449000C9449000C94490061
:100010000C9449000C9449000C9449000C9449003C
:100020000C9449000C9449000C9449000C9449002C
:100030000C9449000C9449000C9449000C9449001C
:100040000C9449000C9449000C9449000C9449000C
:100050000C9449000C9449000C9449000C944900FC
:100060000C9449000C94490011241FBECFEFD8E036
:10007000DEBFCDBF12E0A0E0B1E0E8E6F1E002C0F3
:1000800005900D92A033B107D9F70E947A000C9425
:10009000B2000C940000E1ECF0E080818861808384
:1000A000E2ECF0E080818660808387E68093C40084
:1000B0001092C5000895FC019191992339F0809127
:1000C000C00085FFFCCF9093C600F6CF0895FC01D9
:1000D0003197DF0181818A3061F031968C918D30CA
:1000E00041F08091C00087FFFCCF8091C6008083E3
:1000F000F0CF0895CF93DF93CDB7DEB7C059D1408D
:100100000FB6F894DEBF0FBECDBF8CE291E0E0E009
:10011000F1E0DE01119601900D920197E1F78E0159
:10012000035D1E4F84E6F80111928A95E9F70E945B
:100130004B00CE0101960E945B00CE018B599F4F70
:100140000E945B00CE0187539F4F0E945B00C80155
:100150000E9467008CE292E00E945B00C8010E944E
:080160005B00E7CFF894FFCF2C
:10016800434F4D4D414E44090950494E5F4E554D40
:10017800090953544154450D0A00000000000000CD
:100188000000000000000000000000000000000067
:100198000000000000000000000000000000000057
:1001A8000000000000000000000000000000000047
:1001B8000000000000000000000000000000000037
:1001C80000000000524541440909392F313109091D
:1001D8002D0D0A00000000000000000000000000D3
:1001E8000000000000000000000000000000000007
:1001F80000000000000000000000000000000000F7
:1002080000000000000000000000000000000000E6
:1002180000000000000000000000000000000000D6
:1002280000000000000000005752495445090938F1
:100238002F31300909484947482F4C4F570D0A00BC
:1002480000000000000000000000000000000000A6
:100258000000000000000000000000000000000096
:100268000000000000000000000000000000000086
:100278000000000000000000000000000000000076
:100288000000000000000000000000000D0A00004F
:00000001FF
