:100000000C9434000C9449000C9449000C94490061
:100010000C9449000C9449000C9449000C9449003C
:100020000C9449000C9449000C9449000C9449002C
:100030000C9449000C9449000C9449000C9449001C
:100040000C9449000C9449000C9449000C9449000C
:100050000C9449000C9449000C9449000C944900FC
:100060000C9449000C94490011241FBECFEFD8E036
:10007000DEBFCDBF11E0A0E0B1E0E8E2F1E002C0F8
:1000800005900D92A436B107D9F70E9467000C9431
:1000900092000C940000E1ECF0E0808188618083A4
:1000A000E2ECF0E080818660808387E68093C40084
:1000B0001092C5000895FC019191992339F0809127
:1000C000C00085FFFCCF9093C600F6CF0895CF9374
:1000D000DF93CDB7DEB7C456D1090FB6F894DEBFB3
:1000E0000FBECDBF8AE1E0E0F1E0DE0111960190A4
:1000F0000D928A95E1F7FE017B968AE4DF011D925D
:100100008A95E9F70E944B00CE0101960E945B00A0
:10011000BFEF23ED80E3B15020408040E1F700C005
:080120000000FFCFF894FFCFAF
:10012800434F4D4D414E44090950494E5F4E554D80
:10013800090953544154450D0A000000000000000D
:1001480000000000000000000000000000000000A7
:100158000000000000000000000000000000000097
:100168000000000000000000000000000000000087
:100178000000000000000000000000000000000077
:040188000000000073
:00000001FF
