:100000000C9434000C9449000C9449000C94490061
:100010000C9449000C9449000C9449000C9449003C
:100020000C9449000C9449000C9449000C9449002C
:100030000C9449000C9449000C9449000C9449001C
:100040000C9449000C9449000C9449000C9449000C
:100050000C9449000C9449000C9449000C944900FC
:100060000C9449000C94490011241FBECFEFD8E036
:10007000DEBFCDBF14E0A0E0B1E0E6E1F3E002C0F6
:1000800005900D92AC35B107D9F70E9423010C946D
:1000900089010C940000E1ECF0E0808188618083AC
:1000A000E2ECF0E080818660808387E68093C40084
:1000B0001092C5008AE08AB915B80895FC019191A3
:1000C000992339F08091C00085FFFCCF9093C60042
:1000D000F6CF0895FC0180818A3011F410820895D2
:1000E000DF0111978C918D30C9F38091C00087FF9B
:1000F000FCCF8091C6008193EECF8BE593E00C940A
:100100005E00FC0140E050E080E090E06AE0219178
:100110002223B9F030ED320F3A3080F4689FA0010D
:10012000699F500D1124022E000C330B205331090E
:10013000C901840F951F41E050E0E9CF41155105F9
:1001400031F308950E9481008930910549F4199B8B
:1001500003C08FE993E002C082EB93E00C945E0051
:100160000B9741F41B9B03C084EC93E0F7CF88ED21
:1001700093E0F4CF0C947D00CF93DF93EC018BEEF2
:1001800093E00E945E00CE010E94810088309105BC
:10019000D1F466EF73E0CE010E946F01892B31F03C
:1001A0008BEF93E00E945E00289A2CC06FE074E011
:1001B000CE010E946F01892B41F083E194E00E94FF
:1001C0005E0028981FC00A9721F0DF91CF910C9410
:1001D0007D0066EF73E0CE010E946F01892B31F044
:1001E00086E294E00E945E002A9A0CC06FE074E000
:1001F000CE010E946F01892B41F38BE394E00E94B2
:100200005E002A98DF91CF910895CF93DF93EC01A0
:100210006FE474E00E946F01892B29F0CE01DF9119
:10022000CF910C94A20065E574E0CE010E946F01AD
:10023000892B29F0CE01DF91CF910C94BC00DF9186
:10024000CF910C947D00CF93DF93CDB7DEB7CB5524
:10025000D2400FB6F894DEBF0FBECDBF84EF91E061
:10026000E0E0F1E0DE01119601900D920197E1F7D7
:100270008091580390915903A0915A03C75ADD4FBA
:1002800088839983AA83C955D2407E018BE0E81AFE
:100290008EEFF80A8091F4029091F502F7018193B4
:1002A000919382E6DF011D928A95E9F70E944B0047
:1002B0008E010F5F1F4FC8010E945E000C591F4F37
:1002C0000E151F05C1F7CE01875A9D4F0E945E0093
:1002D000C7010E946A00C7010E940501F4CFFB011B
:1002E00051915523A9F0BF01DC014D9145174111F2
:1002F000E1F759F4CD010190002049F04D914015EE
:100300004111C9F3FB014111EFCF81E090E001976A
:060310000895F894FFCFF0
:100316000A434F4D4D414E44090950494E5F4E55D3
:100326004D090953544154450D0A000000000000D0
:1003360000000000000000000000000000000000B7
:1003460000000000000000000000000000000000A7
:100356000000000000000000000000000000000097
:100366000000000000000000000000000000000087
:10037600000000002A2A2A2A2A2A2A2A2A2A2A2A7F
:100386002A2A2A2A2A2A2A2A2A2A2A2A2A2A2A2AC7
:100396002A2A2A2A2A2A2A2A2A2A0D0A000000009C
:1003A6000000000000000000000000000000000047
:1003B6000000000000000000000000000000000037
:1003C6000000000000000000000000000000000027
:1003D6000000000000000000524541440909392F81
:1003E600313109092D0D0A0000000000000000004F
:1003F60000000000000000000000000000000000F7
:1004060000000000000000000000000000000000E6
:1004160000000000000000000000000000000000D6
:1004260000000000000000000000000000000000C6
:100436000000000000000000000000005752495470
:10044600450909382F31300909484947482F4C4F8B
:10045600570D0A0000000000000000000000000028
:100466000000000000000000000000000000000086
:100476000000000000000000000000000000000076
:100486000000000000000000000000000000000066
:100496000000000000000000000000000000000056
:1004A6002A2A2A2A2A2A2A2A2A2A2A2A2A2A2A2AA6
:1004B6002A2A2A2A2A2A2A2A2A2A2A2A2A2A2A2A96
:1004C6002A2A2A2A2A2A0D0A000000000000000013
:1004D6000000000000000000000000000000000016
:1004E6000000000000000000000000000000000006
:1004F60000000000000000000000000000000000F6
:1005060000000000000000000000000000000000E5
:1005160000000000000000000000000000000000D5
:1005260000000000000000000000000000000000C5
:1005360000000000000000000000000000000000B5
:1005460000000000000000000000000000000000A5
:100556000000000000000000000000000000000095
:1005660000000000000000003E3E00494E56414C8F
:1005760049442053544154452E20436F6D6D616E9E
:1005860064207374727563747572653A20524541BE
:10059600442F285752495445292050494E5F4E55FD
:1005A6004D2028484947482F4C4F57290D0A0050DF
:1005B600696E203920726561647320484947480D89
:1005C6000A0050696E2039207265616473204C4FB1
:1005D600570D0A0050696E203131207265616473CF
:1005E60020484947480D0A0050696E203131207273
:1005F60065616473204C4F570D0A00496E2077726F
:100606006974650D0A00484947480050696E2038EC
:100616002069732073657420484947480D0A004CC9
:100626004F570050696E2038206973207365742017
:100636004C4F570D0A0050696E20313020697320E7
:1006460073657420484947480D0A0050696E203189
:100656003020697320736574204C4F570D0A005281
:0C066600454144200057524954452000F3
:00000001FF
