:100000000C9434000C9449000C9449000C94490061
:100010000C9449000C9449000C9449000C9449003C
:100020000C9449000C9449000C9449000C9449002C
:100030000C9449000C9449000C9449000C9449001C
:100040000C9449000C9449000C9449000C9449000C
:100050000C9449000C9449000C9449000C944900FC
:100060000C9449000C94490011241FBECFEFD8E036
:10007000DEBFCDBF11E0A0E0B1E0EAE7F1E002C0F1
:1000800005900D92A631B107D9F70E9487000C9414
:10009000BB000C94000084B18FEF84B915B8E1EC7B
:1000A000F0E0808188618083E2ECF0E0808186600E
:1000B000808387E68093C4001092C5000895FC01F8
:1000C0002081222359F02091C00025FF05C0FC01AA
:1000D00020812093C600F7CF0196F1CF089520919B
:1000E000C00027FF05C02091C600FC012083F7CF88
:1000F000FC0181818A3051F08091C00087FF04C0EB
:100100008091C6008183F8CF3196F3CF0895CF93C5
:10011000DF93CDB7DEB7CC5CD1090FB6F894DEBF64
:100120000FBECDBF8091110190911201A0911301DA
:10013000B0911401C753DF4F88839983AA83BB838F
:10014000C95CD0401A821982FE01339686ECDF0129
:100150001D928A95E9F70E944B00CE0187539F4F6D
:100160000E945F00CE0101960E946F0080E091E046
:0A0170000E945F00FFCFF894FFCF5C
:10017A007265636569766520636F6D706C65746519
:06018A00003E3E200000D3
:00000001FF
