:100000000C9434000C9451000C9451000C94510049
:100010000C9483000C9451000C9451000C945100EA
:100020000C9451000C9451000C9451000C9451000C
:100030000C9451000C9451000C9451000C945100FC
:100040000C9451000C9451000C9451000C945100EC
:100050000C9451000C9451000C9451000C945100DC
:100060000C9451000C94510011241FBECFEFD8E026
:10007000DEBFCDBF11E0A0E0B1E0E4E7FDE002C0EB
:1000800005900D92AC33B107D9F721E0ACE3B1E0B4
:1000900001C01D92A634B207E1F70E943D010C9405
:1000A000B8060C940000E1E8F0E080818260808373
:1000B0003D9AE8E6F0E0808182608083D998ECE6A2
:1000C000F0E08081806180830895789410928500AB
:1000D00010928400459A8091840090918500449705
:1000E000D0F3459808950E946500349BFECF349963
:1000F000FECF80913C0190913D0164E770E00E9449
:100100008D01CB0108951F920F920FB60F9211240B
:100110008F939F93F89480913E0190913F01892B9A
:1001200059F4109285001092840081E090E0909341
:100130003F0180933E010CC0809184009091850026
:1001400090933D0180933C0110923F0110923E013B
:1001500078949F918F910F900FBE0F901F901895DC
:100160008FEF84B985B98AB9789481EA8093B00019
:100170008FE08093B1001092B2008CE98093B300BD
:1001800080E18093B4000895CF92DF92EF92FF92C6
:10019000853B08F084EB682F70E080E090E00E94DF
:1001A000B80220E030E040E551E40E94490320E03D
:1001B00030E044E353E40E940E0220E030E040EAE5
:1001C00050E40E94A2016B017C010E948002072E74
:1001D000000C880B990B0E94B8029B01AC01C7016F
:1001E000B6010E94A10120E030E040E05FE30E9400
:1001F000440387FD0AC020E030E040E05FE3C70130
:10020000B6010E94A2016B017C01C701B6010E94E8
:1002100080026093B400FF90EF90DF90CF9008953C
:10022000CF93C82F8A3019F48DE00E94100180917D
:10023000C00085FFFCCFC093C60080E090E0CF9166
:1002400008958091C00087FFFCCF8091C60008957B
:100250008AEF8AB91092C50087E68093C40088E1CE
:100260008093C100E0E4F1E08EE091E0938382832B
:1002700080E091E09183808308950E94B0000E9405
:1002800053000E9428010CE111E088E2E82E81E091
:10029000F82EC0E0D0E0DF93CF931F930F930E941E
:1002A000DA038C2F0E94C4000E9473009F938F93E7
:1002B000FF92EF920E94DA0321968DB79EB70896BF
:1002C0000FB6F8949EBF0FBE8DBFC53BD10519F781
:1002D0008AE50E94C4009FEF23ED80E39150204007
:1002E0008040E1F700C0000084EB0E94C4009FEF53
:1002F00023ED80E3915020408040E1F700C00000F2
:1003000080E00E94C4009FEF23ED80E391502040E5
:100310008040E1F700C00000BCCFAA1BBB1B51E12D
:1003200007C0AA1FBB1FA617B70710F0A61BB70B65
:10033000881F991F5A95A9F780959095BC01CD010A
:1003400008955058BB27AA270E94B9010C940A03AC
:100350000E94FC0238F00E94030320F039F49F3F12
:1003600019F426F40C94F9020EF4E095E7FB0C94D2
:10037000F302E92F0E941B0358F3BA1762077307B1
:100380008407950720F079F4A6F50C943D030EF44C
:10039000E0950B2EBA2FA02D0B01B90190010C0195
:1003A000CA01A0011124FF27591B99F0593F50F4AD
:1003B000503E68F11A16F040A22F232F342F442705
:1003C000585FF3CF469537952795A795F0405395FD
:1003D000C9F77EF41F16BA0B620B730B840BBAF0CD
:1003E0009150A1F0FF0FBB1F661F771F881FC2F738
:1003F0000EC0BA0F621F731F841F48F4879577954C
:100400006795B795F7959E3F08F0B0CF9395880F05
:1004100008F09927EE0F9795879508950E9422027C
:100420000C940A030E94030358F00E94FC0240F05F
:1004300029F45F3F29F00C94F30251110C943E0310
:100440000C94F9020E941B0368F39923B1F355231E
:1004500091F3951B550BBB27AA27621773078407D7
:1004600038F09F5F5F4F220F331F441FAA1FA9F36D
:1004700035D00E2E3AF0E0E832D091505040E6955B
:10048000001CCAF72BD0FE2F29D0660F771F881FBC
:10049000BB1F261737074807AB07B0E809F0BB0BAF
:1004A000802DBF01FF2793585F4F3AF09E3F5105C3
:1004B00078F00C94F3020C943E035F3FE4F3983E13
:1004C000D4F3869577956795B795F7959F5FC9F7AC
:1004D000880F911D9695879597F90895E1E0660F2D
:1004E000771F881FBB1F621773078407BA0720F0A6
:1004F000621B730B840BBA0BEE1F88F7E09508950F
:100500000E9487026894B1110C943E0308950E94E2
:10051000230388F09F5798F0B92F9927B751B0F06F
:10052000E1F0660F771F881F991F1AF0BA95C9F777
:1005300014C0B13091F00E943D03B1E008950C94D5
:100540003D03672F782F8827B85F39F0B93FCCF388
:10055000869577956795B395D9F73EF490958095F4
:10056000709561957F4F8F4F9F4F0895E89409C014
:1005700097FB3EF490958095709561957F4F8F4FD6
:100580009F4F9923A9F0F92F96E9BB279395F695EC
:10059000879577956795B795F111F8CFFAF4BB0F6A
:1005A00011F460FF1BC06F5F7F4F8F4F9F4F16C0CE
:1005B000882311F096E911C0772321F09EE8872F58
:1005C000762F05C0662371F096E8862F70E060E014
:1005D0002AF09A95660F771F881FDAF7880F96958D
:1005E000879597F9089597F99F6780E870E060E034
:1005F00008959FEF80EC089500240A9416161706BC
:1006000018060906089500240A9412161306140603
:1006100005060895092E0394000C11F4882352F066
:10062000BB0F40F4BF2B11F460FF04C06F5F7F4F1E
:100630008F4F9F4F089557FD9058440F551F59F005
:100640005F3F71F04795880F97FB991F61F09F3FBF
:1006500079F087950895121613061406551FF2CFE8
:100660004695F1DF08C0161617061806991FF1CF38
:1006700086957105610508940895E894BB2766275F
:100680007727CB0197F908950E94B60308F48FEFFE
:1006900008950E945C030C940A030E94FC0238F047
:1006A0000E94030320F0952311F00C94F3020C94A4
:1006B000F90211240C943E030E941B0370F3959FD2
:1006C000C1F3950F50E0551F629FF001729FBB2749
:1006D000F00DB11D639FAA27F00DB11DAA1F649FE5
:1006E0006627B00DA11D661F829F2227B00DA11D98
:1006F000621F739FB00DA11D621F839FA00D611D1E
:10070000221F749F3327A00D611D231F849F600D3E
:10071000211D822F762F6A2F11249F5750409AF067
:10072000F1F088234AF0EE0FFF1FBB1F661F771FF3
:10073000881F91505040A9F79E3F510580F00C94BE
:10074000F3020C943E035F3FE4F3983ED4F38695A6
:1007500077956795B795F795E7959F5FC1F7FE2B5E
:10076000880F911D9695879597F90895990F000820
:10077000550FAA0BE0E8FEEF16161706E807F90773
:10078000C0F012161306E407F50798F0621B730B0E
:10079000840B950B39F40A2661F0232B242B252B8F
:1007A00021F408950A2609F4A140A6958FEF811D32
:1007B000811D0895A0E0B0E0E0EEF3E00C94910616
:1007C000AE014B5F5F4FFA0161917191AF01809172
:1007D0004201909143010E94F003E2E00C94AD06C7
:1007E000ABE0B0E0E6EFF3E00C9481066C017B0136
:1007F0008A01FC0117821682838181FFCCC1CE0160
:1008000001963C01F6019381F70193FD859193FFD9
:1008100081917F01882309F4BAC1853239F493FDAF
:10082000859193FF81917F01853229F4B60190E093
:100830000E94E705E7CF912C212C312CFFE1F31525
:10084000D8F08B3279F038F4803279F08332A1F429
:10085000232D20611DC08D3261F0803369F4232D7A
:10086000216016C0832D8260382EE32DE4603E2E79
:100870002AC0F32DF8601DC037FC2DC020ED280FD5
:100880002A3040F08E32B9F436FC81C1232D206429
:10089000322E19C036FE06C08AE0989E200D112423
:1008A000922E11C0EAE02E9E200D1124222EF32D4F
:1008B000F0623F2E08C08C3621F4832D8068382EDC
:1008C00002C0883641F4F70193FD859193FF819131
:1008D0007F018111B3CF982F9F7D9554933028F4D9
:1008E0000C5F1F4F9FE399830DC0833631F0833730
:1008F00071F0833509F059C021C0F80180818983E6
:100900000E5F1F4F88248394912C530113C028013C
:10091000F2E04F0E511CF801A080B18036FE03C0FA
:10092000692D70E002C06FEF7FEFC5010E94DC050A
:100930004C018201F32DFF773F2E16C0280122E0E3
:10094000420E511CF801A080B18036FE03C0692D13
:1009500070E002C06FEF7FEFC5010E94D1054C012E
:10096000F32DF0683F2E820133FC1BC0822D90E0F6
:1009700088169906B0F4B60180E290E00E94E7057F
:100980002A94F4CFF50137FC859137FE81915F0100
:10099000B60190E00E94E70521102A9421E0821A16
:1009A00091088114910471F7E8C0843611F08936FA
:1009B00041F5F80137FE07C0608171818281938122
:1009C0000C5F1F4F08C060817181072E000C880BDF
:1009D000990B0E5F1F4FF32DFF763F2E97FF09C037
:1009E00090958095709561957F4F8F4F9F4FF068E0
:1009F0003F2E2AE030E0A3010E942306882E8618AD
:100A000045C0853731F4232D2F7EB22E2AE030E009
:100A100025C0932D997FB92E8F36C1F018F48835F3
:100A200079F0B5C0803719F0883721F0B0C0E92FD0
:100A3000E061BE2EB4FE0DC0FB2DF460BF2E09C0D8
:100A400034FE0AC0292F2660B22E06C028E030E00E
:100A500005C020E130E002C020E132E0F801B7FE3D
:100A600007C060817181828193810C5F1F4F06C036
:100A70006081718180E090E00E5F1F4FA3010E94B2
:100A80002306882E8618FB2DFF773F2E36FE0DC0DD
:100A9000232D2E7FA22E891458F434FE0BC032FC75
:100AA00009C0832D8E7EA82E05C0B82CA32C03C0B0
:100AB000B82C01C0B92CA4FE0FC0FE01E80DF11D39
:100AC0008081803321F49A2D997EA92E09C0A2FE3F
:100AD00006C0B394B39404C08A2D867809F0B39409
:100AE000A3FC11C0A0FE06C0B21488F4280C922CFE
:100AF0009B180EC0B21460F4B60180E290E00E9430
:100B0000E705B394F7CFB21418F42B1802C0982C51
:100B1000212CA4FE10C0B60180E390E00E94E705FE
:100B2000A2FE17C0A1FC03C088E790E002C088E5E0
:100B300090E0B6010CC08A2D867859F0A1FE02C063
:100B40008BE201C080E2A7FC8DE2B60190E00E943A
:100B5000E705891438F4B60180E390E00E94E705C8
:100B60009A94F7CF8A94F301E80DF11D8081B601C4
:100B700090E00E94E7058110F5CF222009F442CED3
:100B8000B60180E290E00E94E7052A94F6CFF601D4
:100B90008681978102C08FEF9FEF2B96E2E10C9444
:100BA0009D06FC010590615070400110D8F78095BA
:100BB00090958E0F9F1F0895FC0161507040019029
:100BC0000110D8F7809590958E0F9F1F08950F9371
:100BD0001F93CF93DF93FB01238121FD03C08FEF90
:100BE0009FEF2CC022FF16C046815781248135819A
:100BF0004217530744F4A081B1819D012F5F3F4FFD
:100C0000318320838C93268137812F5F3F4F378339
:100C1000268314C08B01EC01FB010084F185E02DDB
:100C20000995892BE1F6D80116968D919C9117971D
:100C3000019617969C938E931697CE01DF91CF91D4
:100C40001F910F910895FA01AA27283051F1203100
:100C500081F1E8946F936E7F6E5F7F4F8F4F9F4F50
:100C6000AF4FB1E03ED0B4E03CD0670F781F891F92
:100C70009A1FA11D680F791F8A1F911DA11D6A0F60
:100C8000711D811D911DA11D20D009F468943F9113
:100C90002AE0269F11243019305D3193DEF6CF0112
:100CA0000895462F4770405D4193B3E00FD0C9F7D8
:100CB000F6CF462F4F70405D4A3318F0495D31FD45
:100CC0004052419302D0A9F7EACFB4E0A695979598
:100CD000879577956795BA95C9F70097610571056E
:100CE00008959B01AC010A2E0694579547953795B8
:100CF0002795BA95C9F7620F731F841F951FA01D12
:100D000008952F923F924F925F926F927F928F92AF
:100D10009F92AF92BF92CF92DF92EF92FF920F938A
:100D20001F93CF93DF93CDB7DEB7CA1BDB0B0FB694
:100D3000F894DEBF0FBECDBF09942A883988488851
:100D40005F846E847D848C849B84AA84B984C884E7
:100D5000DF80EE80FD800C811B81AA81B981CE0FDE
:100D6000D11D0FB6F894DEBF0FBECDBFED010895C3
:040D7000F894FFCF25
:100D7400000000010000000000002101000000004C
:100D8400000200000000100100000000506F7369B1
:100D940074696F6E3A2564002073656E736F7220F8
:0C0DA40076616C75653A2025640A000039
:00000001FF
