:100000000C9434000C9446000C9446000C9446006A
:100010000C9446000C9446000C9446000C94460048
:100020000C9446000C9446000C9446000C94460038
:100030000C9446000C9446000C9446000C94460028
:100040000C9446000C9446000C9446000C94460018
:100050000C9446000C9446000C9446000C94460008
:100060000C9446000C94460011241FBECFEFD8E03C
:10007000DEBFCDBF21E0A0E0B1E001C01D92A13004
:10008000B207E1F70E941F010C949C010C94000040
:1000900084B5806884BD84B5806284BD84B5836086
:1000A00084BD85B5682B65BD17BC87B588BD559ADD
:1000B000569A16BC08952FEF269FC001279F900DDA
:1000C000112464E670E00E947401862F08955F9AFF
:1000D0002898299A2B982FEF269FC001279F900DD3
:1000E000112464E670E00E94740167BD87B588BD85
:1000F00008955F9A28982B9A29982FEF269FC00180
:10010000279F900D112464E670E00E94740167BD82
:1001100087B588BD08955F98289A2B9A29982FEF64
:10012000269FC001279F900D112464E670E00E9475
:10013000740167BD87B588BD08955F98289A2B988C
:10014000299A2FEF269FC001279F900D112464E666
:1001500070E00E94740167BD87B588BD08950F9354
:100160001F93CF93DF93EC018B010E9479002FEF57
:100170008BE792E9215080409040E1F700C00000F9
:10018000B801CE010E9467002FEF83ED90E321506C
:1001900080409040E1F700C00000B801CE010E940D
:1001A00079002FEF8BE792E9215080409040E1F7F2
:1001B00000C00000B801CE010E9467002FEF83ED60
:1001C00090E3215080409040E1F700C00000B8016A
:1001D000CE010E9479002FEF8BE792E921508040F9
:1001E0009040E1F700C00000B801CE010E94670016
:1001F0002FEF83ED90E3215080409040E1F700C065
:100200000000B801CE010E9479002FEF8BE792E940
:10021000215080409040E1F700C0000060E0CE0136
:10022000DF91CF911F910F910C9448005F9A28980D
:100230002B9A29988FEF87BD8CE488BD089565E0DF
:1002400080E091E00E94480064E670E080E091E088
:100250000E9479002FEF87EA91E62150804090407C
:10026000E1F700C0000062E370E080E091E00E94EE
:100270009D002FEF87EA91E6215080409040E1F702
:1002800000C0000064E670E080E091E00E948B0016
:100290002FEF87EA91E6215080409040E1F700C0BF
:1002A000000062E370E080E091E00E9467002FEFC1
:1002B0008FE493EC215080409040E1F700C00000B3
:1002C00062E370E080E091E00E94AF002FEF87EAE8
:1002D00091E6215080409040E1F700C0000080E0AE
:1002E00091E00E941601FFCF97FB072E16F40094B1
:1002F00007D077FD09D00E94880107FC05D03EF4A5
:10030000909581959F4F0895709561957F4F0895C1
:10031000AA1BBB1B51E107C0AA1FBB1FA617B7072B
:1003200010F0A61BB70B881F991F5A95A9F7809547
:0C0330009095BC01CD010895F894FFCF1A
:00000001FF
