:100000000C9434000C943E000C943E000C943E0082
:100010000C943E000C943E000C943E000C943E0068
:100020000C943E000C943E000C943E000C943E0058
:100030000C943E000C943E000C943E000C943E0048
:100040000C943E000C943E000C943E000C943E0038
:100050000C943E000C943E000C943E000C943E0028
:100060000C943E000C943E0011241FBECFEFD8E04C
:10007000DEBFCDBF0E9403010C9431010C9400003F
:1000800094B5906894BD94B5906294BD94B5936016
:1000900094BD95B5892B85BD17BC87B588BD559A8C
:1000A000569A16BC08955F9A2898299A2B982FEF94
:1000B000AC01249FC001259F900D112464E670E0DF
:1000C0000E94090167BD87B588BD08955F9A289889
:1000D0002B9A29982FEFAC01249FC001259F900DEA
:1000E000112464E670E00E94090167BD87B588BDF0
:1000F00008955F98289A2B9A29982FEFAC01249F96
:10010000C001259F900D112464E670E00E94090152
:1001100067BD87B588BD08955F98289A2B98299A5E
:100120002FEFAC01249FC001259F900D112464E6A0
:1001300070E00E94090167BD87B588BD0895CF931F
:10014000DF93EC010E9466002FEF8BE792E92150CC
:1001500080409040E1F700C00000CE010E945300B3
:100160002FEF83ED90E3215080409040E1F700C0F5
:100170000000CE010E9466002FEF8BE792E921502C
:1001800080409040E1F700C00000CE010E94530083
:100190002FEF83ED90E3215080409040E1F700C0C5
:1001A0000000CE010E9466002FEF8BE792E92150FC
:1001B00080409040E1F700C00000CE010E94530053
:1001C0002FEF83ED90E3215080409040E1F700C095
:1001D0000000CE010E9466002FEF8BE792E92150CC
:1001E00080409040E1F700C0000080E0DF91CF91B7
:1001F0000C9440005F9A28982B9A29988FEF87BD1E
:100200008CE488BD089585E00E9440000E94FA00B9
:10021000FFCF97FB072E16F4009407D077FD09D087
:100220000E941D0107FC05D03EF4909581959F4FDB
:100230000895709561957F4F0895AA1BBB1B51E1EE
:1002400007C0AA1FBB1FA617B70710F0A61BB70B46
:10025000881F991F5A95A9F780959095BC01CD01EB
:060260000895F894FFCFA1
:00000001FF
