:100000000C943A000C9457000C9457000C94570031
:100010000C9481020C9441020C9457000C945700EC
:100020000C9457000C9457000C9457000C945700F4
:100030000C9457000C9457000C9457000C945700E4
:100040000C940B020C9457000C9457000C9457001E
:100050000C9457000C9457000C9457000C945700C4
:100060000C9457000C9457006364696E6F7073753D
:1000700078585B0011241FBECFEFD8E0DEBFCDBFA4
:1000800011E0A0E0B1E0EEE5F9E102C005900D92CB
:10009000A234B107D9F721E0A2E4B1E001C01D927A
:1000A000AE34B207E1F70E9423040C94AD0C0C941B
:1000B000000085E00E940A030E9410040E94AE0224
:1000C0000E944902EEE6F0E080818160808308951D
:1000D0000C947202CF93DF931F92CDB7DEB780E00E
:1000E00090E00E943D031982CE0101967C010CE153
:1000F00011E0FF92EF921F930F930E94B4060F90AE
:100100000F900F900F9089818436A1F03CF48136D6
:10011000B1F480E590E00E945003EBCF833729F0E3
:10012000873769F482E390E00CC082E390E00E949C
:100130006303DFCF80E590E00E942A03DACF80E0FE
:1001400090E00E943D03D5CFCF93DF93EC0185E58E
:1001500090E0209721F40E942A0384EB03C00E94C0
:10016000500380E00E94BE022FEF89E698E1215003
:1001700080409040E1F700C0000082E390E00E94E0
:100180003D030E947202CC97E4F32FEF89E698E1D9
:10019000215080409040E1F700C0000080E090E0F6
:1001A0000E943D0380916800846080936800809184
:1001B0006D00806180936D008AE590E0CD2B51F455
:1001C0000E9450032FEF86E191E121508040904042
:1001D000E1F709C00E942A032FEF89E698E1215038
:1001E00080409040E1F700C0000080E590E00E9470
:1001F0003D032FEF89E698E1215080409040E1F7E0
:1002000000C0000080E0DF91CF910C940A03EF92D0
:10021000FF920F931F93CF93DF930E947202EC0122
:100220002C9700E010E05FE1E52E51E0F52ED7FFBE
:1002300003C0D195C195D10925970CF455C00E94F2
:100240007202EC012C979E01201B310B89019E014B
:10025000220F331F020F131FDF93CF939F938F93B0
:100260001F930F93FF92EF920E949E068DB79EB749
:1002700008960FB6F8949EBF0FBE8DBF05361105C8
:1002800044F40C399FEF190774F0101611063CF472
:1002900002C004E610E0C8010E943D031AC0011527
:1002A0001105A1F002C00CE91FEFC8010E94630311
:1002B0002FEF31EE84E0215030408040E1F700C064
:1002C000000080E090E00E94630303C080E00E9491
:1002D0000A039FEF24E33CE0915020403040E1F7D7
:1002E00000C000008E01A3CFDF91CF911F910F912D
:1002F000FF90EF900895CF93DF93EC0184E690E0B8
:10030000209751F40E942A032FEF86E191E12150BA
:1003100080409040E1F709C00E9450032FEF85EA2A
:100320009EE0215080409040E1F700C000000E9414
:100330000701CE01DF91CF910C94A4000F931F937E
:10034000CF93DF9380E00E94BE022FEF85EA9EE00C
:10035000215080409040E1F700C000000E947202EE
:100360008C0184EB0E94BE022FEF85EA9EE02150B3
:1003700080409040E1F700C000000E947202EC0152
:100380008AE50E94BE022FEF85EA9EE02150804060
:100390009040E1F700C00000C01BD10B84E690E064
:1003A0001C161D0674F40E9450032FEF86E191E1A4
:1003B000215080409040E1F700C00000C0E0D0E054
:1003C0000DC00E942A032FEF88EF95E12150804055
:1003D0009040E1F700C00000C1E0D0E080E090E094
:1003E0000E943D030E940701CE01DF91CF911F9132
:1003F0000F910C947B018AE50E94BE022FEF83EDE2
:1004000090E3215080409040E1F700C000000E943E
:1004100007010C949E011F920F920FB60F921124A8
:100420002F933F934F935F936F937F938F939F93FC
:10043000AF93BF93EF93FF93F89480914201909113
:1004400043010196909343018093420180914201C0
:10045000909143018E32974014F00E946A00789484
:10046000FF91EF91BF91AF919F918F917F916F918C
:100470005F914F913F912F910F900FBE0F901F9062
:1004800018951F920F920FB60F921124F8940E94A4
:100490006A00E1E8F0E08081826080833D9AE8E6CE
:1004A000F0E0808182608083D998ECE6F0E0808182
:1004B000806180830895349BFECF3499FECF2FEF67
:1004C00089EF90E0215080409040E1F700C00000AB
:1004D000809144019091450164E770E00E943D04E1
:1004E000CB01089578941092850010928400459A6B
:1004F00080918400909185004497D0F345980C94A6
:100500005B021F920F920FB60F9211248F939F934D
:10051000F8948091460190914701892B59F41092EB
:1005200085001092840081E090E0909347018093D1
:1005300046010CC080918400909185009093450104
:1005400080934401109247011092460178949F9144
:100550008F910F900FBE0F901F901895539A81EABC
:100560008093B0008FE08093B1001092B2008CE9CC
:100570008093B30082E18093B4000895CF92DF921C
:10058000EF92FF92853B08F084EB682F70E080E0EB
:1005900090E00E947C0520E030E040E551E40E94BC
:1005A0000D0620E030E044E353E40E94D20420E052
:1005B00030E040EA50E40E9466046B017C010E9436
:1005C0004405072E000C880B990B0E947C059B01AB
:1005D000AC01C701B6010E94650420E030E040E0B4
:1005E0005FE30E94080687FD0AC020E030E040E09B
:1005F0005FE3C701B6010E9466046B017C01C7017D
:10060000B6010E944B056093B400FF90EF90DF901D
:10061000CF90089594B5906894BD94B5906294BDC0
:1006200094B5936094BD95B5892B85BD17BC87B5EE
:1006300088BD559A569A16BC08952FEFAC01249F99
:10064000C001259F900D112464E670E00E945104C2
:10065000862F08955F9A2898299A2B982FEFAC013E
:10066000249FC001259F900D112464E670E00E9434
:10067000510467BD87B588BD08955F9A28982B9A65
:1006800029982FEFAC01249FC001259F900D1124C4
:1006900064E670E00E94510467BD87B588BD089587
:1006A0005F98289A2B9A29982FEFAC01249FC001BC
:1006B000259F900D112464E670E00E94510467BDEF
:1006C00087B588BD08955F98289A2B98299A2FEFAF
:1006D000AC01249FC001259F900D112464E670E0B9
:1006E0000E94510467BD87B588BD0895CF93DF93FD
:1006F000EC010E943D032FEF83ED90E321508040F9
:100700009040E1F700C00000CE010E942A032FEFC5
:1007100089E698E1215080409040E1F700C0000058
:10072000CE010E943D032FEF83ED90E321508040E6
:100730009040E1F700C00000CE010E942A032FEF95
:1007400089E698E1215080409040E1F700C0000028
:10075000CE010E943D032FEF83ED90E321508040B6
:100760009040E1F700C00000CE010E942A032FEF65
:1007700089E698E1215080409040E1F700C00000F8
:10078000CE010E943D032FEF83ED90E32150804086
:100790009040E1F700C0000080E0DF91CF910C9421
:1007A0000A035F9A28982B9A29988FEF87BD8CE4CB
:1007B00088BD08955F9A28982FEFAC01249FC0014F
:1007C000259F900D112464E670E00E94510467BDDE
:1007D00008952B9A29982FEFAC01249FC001259FE3
:1007E000900D112464E670E00E94510468BD0895E4
:1007F000CF93C82F8A3019F48DE00E94F8038091BE
:10080000C00085FFFCCFC093C60080E090E0CF9190
:1008100008958091C00087FFFCCF8091C6000895A5
:100820001092C50087E68093C40088E18093C100E0
:10083000E8E4F1E08EE091E09383828380E091E050
:100840009183808308950E9459000E94720297FD4F
:10085000FCCF82E390E00E943D032FEF87E893E115
:10086000215080409040E1F700C0000080E090E01F
:100870000E943D030E94FB01FFCFAA1BBB1B51E15D
:1008800007C0AA1FBB1FA617B70710F0A61BB70B00
:10089000881F991F5A95A9F780959095BC01CD01A5
:1008A000089597FB072E16F4009407D077FD09D022
:1008B0000E943D0407FC05D03EF4909581959F4F22
:1008C0000895709561957F4F08955058BB27AA27CA
:1008D0000E947D040C94CE050E94C00538F00E9451
:1008E000C70520F039F49F3F19F426F40C94BD0598
:1008F0000EF4E095E7FB0C94B705E92F0E94DF05A5
:1009000058F3BA17620773078407950720F079F444
:10091000A6F50C9401060EF4E0950B2EBA2FA02D2F
:100920000B01B90190010C01CA01A0011124FF279C
:10093000591B99F0593F50F4503E68F11A16F04097
:10094000A22F232F342F4427585FF3CF4695379596
:100950002795A795F0405395C9F77EF41F16BA0B5B
:10096000620B730B840BBAF09150A1F0FF0FBB1F09
:10097000661F771F881FC2F70EC0BA0F621F731F52
:10098000841F48F4879577956795B795F7959E3FAF
:1009900008F0B0CF9395880F08F09927EE0F979540
:1009A000879508950E94E6040C94CE050E94C70521
:1009B00058F00E94C00540F029F45F3F29F00C94E4
:1009C000B70551110C9402060C94BD050E94DF0579
:1009D00068F39923B1F3552391F3951B550BBB276E
:1009E000AA2762177307840738F09F5F5F4F220FB3
:1009F000331F441FAA1FA9F335D00E2E3AF0E0E8AA
:100A000032D091505040E695001CCAF72BD0FE2FF3
:100A100029D0660F771F881FBB1F26173707480787
:100A2000AB07B0E809F0BB0B802DBF01FF2793583F
:100A30005F4F3AF09E3F510578F00C94B7050C9447
:100A400002065F3FE4F3983ED4F386957795679569
:100A5000B795F7959F5FC9F7880F911D9695879574
:100A600097F90895E1E0660F771F881FBB1F621793
:100A700073078407BA0720F0621B730B840BBA0B51
:100A8000EE1F88F7E09508950E944B056894B11118
:100A90000C94020608950E94E70588F09F5798F08D
:100AA000B92F9927B751B0F0E1F0660F771F881F73
:100AB000991F1AF0BA95C9F714C0B13091F00E948D
:100AC0000106B1E008950C940106672F782F88275E
:100AD000B85F39F0B93FCCF3869577956795B395B4
:100AE000D9F73EF490958095709561957F4F8F4F23
:100AF0009F4F0895E89409C097FB3EF49095809528
:100B0000709561957F4F8F4F9F4F9923A9F0F92FD3
:100B100096E9BB279395F695879577956795B79551
:100B2000F111F8CFFAF4BB0F11F460FF1BC06F5F37
:100B30007F4F8F4F9F4F16C0882311F096E911C049
:100B4000772321F09EE8872F762F05C0662371F06A
:100B500096E8862F70E060E02AF09A95660F771F7E
:100B6000881FDAF7880F9695879597F9089597F972
:100B70009F6780E870E060E008959FEF80EC089543
:100B800000240A941616170618060906089500246C
:100B90000A9412161306140605060895092E0394E6
:100BA000000C11F4882352F0BB0F40F4BF2B11F45A
:100BB00060FF04C06F5F7F4F8F4F9F4F089557FDB9
:100BC0009058440F551F59F05F3F71F04795880FBB
:100BD00097FB991F61F09F3F79F087950895121652
:100BE00013061406551FF2CF4695F1DF08C01616FE
:100BF00017061806991FF1CF8695710561050894AF
:100C00000895E894BB2766277727CB0197F90895C5
:100C10000E947A0608F48FEF08950E9420060C9433
:100C2000CE050E94C00538F00E94C70520F095232C
:100C300011F00C94B7050C94BD0511240C94020618
:100C40000E94DF0570F3959FC1F3950F50E0551F8B
:100C5000629FF001729FBB27F00DB11D639FAA2711
:100C6000F00DB11DAA1F649F6627B00DA11D661F60
:100C7000829F2227B00DA11D621F739FB00DA11D81
:100C8000621F839FA00D611D221F749F3327A00D3B
:100C9000611D231F849F600D211D822F762F6A2FD7
:100CA00011249F5750409AF0F1F088234AF0EE0F3C
:100CB000FF1FBB1F661F771F881F91505040A9F769
:100CC0009E3F510580F00C94B7050C9402065F3FDF
:100CD000E4F3983ED4F3869577956795B795F795A5
:100CE000E7959F5FC1F7FE2B880F911D969587951D
:100CF00097F90895990F0008550FAA0BE0E8FEEF49
:100D000016161706E807F907C0F012161306E407CF
:100D1000F50798F0621B730B840B950B39F40A26C8
:100D200061F0232B242B252B21F408950A2609F4A6
:100D3000A140A6958FEF811D811D0895A0E0B0E030
:100D4000E4EAF6E00C94860CAE014B5F5F4FFA01CB
:100D500061917191AF0180914A0190914B010E9484
:100D6000CA06E2E00C94A20CA0E0B0E0EAEBF6E0E8
:100D70000C94860CAE014B5F5F4FFA01619171914B
:100D8000AF0180914801909149010E94470AE2E039
:100D90000C94A20CABE0B0E0E0EDF6E00C94760C25
:100DA0006C017B018A01FC0117821682838181FF1D
:100DB000CCC1CE0101963C01F6019381F70193FD70
:100DC000859193FF81917F01882309F4BAC185320F
:100DD00039F493FD859193FF81917F01853229F448
:100DE000B60190E00E94C00BE7CF912C212C312C52
:100DF000FFE1F315D8F08B3279F038F4803279F0D6
:100E00008332A1F4232D20611DC08D3261F0803327
:100E100069F4232D216016C0832D8260382EE32DC6
:100E2000E4603E2E2AC0F32DF8601DC037FC2DC0B3
:100E300020ED280F2A3040F08E32B9F436FC81C103
:100E4000232D2064322E19C036FE06C08AE0989EFB
:100E5000200D1124922E11C0EAE02E9E200D1124A7
:100E6000222EF32DF0623F2E08C08C3621F4832D04
:100E70008068382E02C0883641F4F70193FD8591D1
:100E800093FF81917F018111B3CF982F9F7D95545E
:100E9000933028F40C5F1F4F9FE399830DC0833676
:100EA00031F0833771F0833509F059C021C0F80162
:100EB000808189830E5F1F4F88248394912C530176
:100EC00013C02801F2E04F0E511CF801A080B18040
:100ED00036FE03C0692D70E002C06FEF7FEFC501E1
:100EE0000E94770B4C018201F32DFF773F2E16C035
:100EF000280122E0420E511CF801A080B18036FE8C
:100F000003C0692D70E002C06FEF7FEFC5010E9442
:100F10006C0B4C01F32DF0683F2E820133FC1BC09B
:100F2000822D90E088169906B0F4B60180E290E038
:100F30000E94C00B2A94F4CFF50137FC859137FE4F
:100F400081915F01B60190E00E94C00B21102A94AC
:100F500021E0821A91088114910471F7E8C0843667
:100F600011F0893641F5F80137FE07C060817181C3
:100F7000828193810C5F1F4F08C060817181072EB1
:100F8000000C880B990B0E5F1F4FF32DFF763F2E41
:100F900097FF09C090958095709561957F4F8F4F11
:100FA0009F4FF0683F2E2AE030E0A3010E94150C0D
:100FB000882E861845C0853731F4232D2F7EB22E1A
:100FC0002AE030E025C0932D997FB92E8F36C1F0ED
:100FD00018F4883579F0B5C0803719F0883721F0DA
:100FE000B0C0E92FE061BE2EB4FE0DC0FB2DF46051
:100FF000BF2E09C034FE0AC0292F2660B22E06C0BB
:1010000028E030E005C020E130E002C020E132E01D
:10101000F801B7FE07C060817181828193810C5F06
:101020001F4F06C06081718180E090E00E5F1F4F0E
:10103000A3010E94150C882E8618FB2DFF773F2EEA
:1010400036FE0DC0232D2E7FA22E891458F434FEB7
:101050000BC032FC09C0832D8E7EA82E05C0B82C93
:10106000A32C03C0B82C01C0B92CA4FE0FC0FE01F4
:10107000E80DF11D8081803321F49A2D997EA92EEF
:1010800009C0A2FE06C0B394B39404C08A2D86782A
:1010900009F0B394A3FC11C0A0FE06C0B21488F4FA
:1010A000280C922C9B180EC0B21460F4B60180E29A
:1010B00090E00E94C00BB394F7CFB21418F42B1831
:1010C00002C0982C212CA4FE10C0B60180E390E051
:1010D0000E94C00BA2FE17C0A1FC03C088E790E0ED
:1010E00002C088E590E0B6010CC08A2D867859F0E0
:1010F000A1FE02C08BE201C080E2A7FC8DE2B60136
:1011000090E00E94C00B891438F4B60180E390E0AF
:101110000E94C00B9A94F7CF8A94F301E80DF11D59
:101120008081B60190E00E94C00B8110F5CF222093
:1011300009F442CEB60180E290E00E94C00B2A94EE
:10114000F6CFF6018681978102C08FEF9FEF2B9635
:10115000E2E10C94920C20FD09C0FC0123FD05C0C6
:1011600022FF02C07383628351834083089544FD4C
:1011700017C046FD17C0AB01BC01DA01FB01AA0F85
:10118000BB1FEE1FFF1F1094D1F74A0F5B1F6E1F8E
:101190007F1FCB01BA01660F771F881F991F09C0F7
:1011A00033E001C034E0660F771F881F991F31506C
:1011B000D1F7620F711D811D911D08950F931F932B
:1011C000CF93DF938C01C8010E94820BEC0197FD45
:1011D00008C00E94580B892BB1F7B801CE010E94BC
:1011E000FC0BCE01DF91CF911F910F9108958F924B
:1011F0009F92AF92BF92EF92FF920F931F93CF9364
:10120000DF938C01D62F7A01B22E0E94820B9C01B3
:1012100033272B32310531F02D32310561F48B2D1E
:101220008068B82ED15011F480E068C0C8010E94D7
:10123000820B97FDF9CFCB2DCD7F2B2D207309F598
:101240008033F9F4AA24AA94AD0E09F443C0C8016E
:101250000E94820B97FD3EC09C012F7D33272835CD
:10126000310549F4C264D250A9F1C8010E94820B31
:1012700097FF07C02FC0B6FE02C0C26001C0C261A6
:10128000DA2D812C912C540120ED280F283080F08C
:10129000C4FF04C0B8010E94FC0B19C02A3040F002
:1012A000C6FFF8CF2F7D3FEE320F363098F727502C
:1012B0004C2FC501B4010E94B7084B015C01C2600C
:1012C000D15059F0C8010E94820B97FFDDCFC1FDBC
:1012D00004C0AACF812C912C5401C7FF08C0B09440
:1012E000A09490948094811C911CA11CB11C2C2F63
:1012F000B501A401C7010E94AB0881E0DF91CF9145
:101300001F910F91FF90EF90BF90AF909F908F90A3
:101310000895A0E2B0E0EFE8F9E00C94790C5C01EC
:10132000962E7A01F9018E010F5F1F4F680180E24E
:10133000D8011D928A95E9F7D50113968C9080E02B
:1013400090E0612C712C30E061E070E083FC25912D
:1013500083FE21918F01522E211103C080E090E085
:1013600092C02E3511F4009751F1432F50E04817E9
:1013700059073CF42D3559F12D3219F4772009F134
:1013800003C0772009F46AC0452D469546954695D9
:10139000D601A40FB11D452D47708B0102C0000F6F
:1013A000111F4A95E2F7A8015C91452B4C936514F7
:1013B00059F0561410F45394E7CF5A94E5CF31E026
:1013C00004C07724739401C0712C0196BFCF77209D
:1013D00019F08E8180628E83311103C0882483943A
:1013E00017C0F6019E012F5D3F4F8081809581934C
:1013F0002E173F07D1F7F2CFE114F10429F0D701FE
:101400008C93F70131967F019A94812C9920F9F001
:10141000C5010E94820B97FD18C0FC01FF2723E045
:10142000F595E7952A95E1F7EC0DFD1D208130E05B
:10143000AC014770552702C0359527954A95E2F7CC
:1014400020FDDACFB5010E94FC0B811087CFE1149B
:10145000F10411F0D7011C92C80115C0422F469526
:1014600046954695D601A40FB11D422F47708B01BA
:1014700002C0000F111F4A95E2F7A8015C91452BAD
:101480004C93622EA2CFA096EFE00C94950CA0E0B6
:10149000B0E0EDE4FAE00C94790C6C01EB015A0138
:1014A000FC0117821682512CF601E380FE01E3FC59
:1014B0008591E3FE8191182FEF01882309F4EEC096
:1014C00090E00E94580B892B21F0C6010E94DE0893
:1014D000EBCF153241F4FE01E3FC1591E3FE1191CF
:1014E000EF01153281F4C6010E94820B97FDD4C032
:1014F000412F50E09C01332724173507A9F2B6018C
:101500000E94FC0BCBC01A3239F4E3FC1591E3FEC8
:101510001191EF0101E001C000E0F12C20ED210F5D
:101520002A3080F402606F2D70E080E090E040E2AD
:101530000E94B708F62EFE01E3FC1591E3FE11911F
:10154000EF01ECCF01FF03C0F11003C0A7C0FF24DF
:10155000FA94183619F01C3651F010C0FE01E3FC65
:101560001591E3FE1191EF01183641F40860046013
:10157000FE01E3FC1591E3FE1191EF01112309F443
:101580008DC0612F70E088E690E00E94610B892B8E
:1015900009F484C000FD07C0F50180809180C50179
:1015A00002965C0102C0812C912C1E3651F4F6018A
:1015B0004681578160E070E0202FC4010E94AB0893
:1015C00073CF1336A9F401FD02C0FF24F394C601C2
:1015D0000E94820B97FD60C08114910429F0F401F0
:1015E0008083C40101964C01FA94F110F0CF50C0F1
:1015F0001B3559F49E01A4016F2DC6010E94890973
:10160000EC01892B09F044C03EC0C6010E94DE08EF
:1016100097FD42C01F3661F128F4143639F11936AE
:1016200051F128C0133771F0153701F123C081142F
:10163000910429F0F4016082C40101964C01FA94EE
:10164000FF2071F0C6010E94820B3C0197FD08C08B
:101650000E94580B892B59F3B601C3010E94FC0B61
:1016600081149104A9F0F401108212C0006203C039
:10167000006101C00064202FA4016F2DC6010E94EB
:10168000F708811105C0F6018381807329F406C033
:1016900000FD0ACF539408CF552019F0852D90E016
:1016A00002C08FEF9FEFCDB7DEB7EFE00C94950C43
:1016B00091110C94730C803219F089508550C8F741
:1016C0000895FC010590061621F00020D9F7C0010D
:1016D00008953197CF010895FC0105906150704045
:1016E0000110D8F7809590958E0F9F1F0895FC01EB
:1016F0006150704001900110D8F7809590958E0F41
:101700009F1F0895CF93DF93EC012B8120FF33C0FF
:1017100026FF0AC02F7B2B838E819F8101969F839A
:101720008E838A8190E029C022FF0FC0E881F98171
:101730008081082E000C990B009719F420622B83EE
:101740001AC03196F983E8830EC0EA85FB850995B6
:1017500097FF09C02B81019611F080E201C080E162
:10176000822B8B8308C02E813F812F5F3F4F3F83A9
:101770002E83992702C08FEF9FEFDF91CF910895BD
:101780000F931F93CF93DF93FB01238121FD03C0B0
:101790008FEF9FEF2CC022FF16C046815781248116
:1017A00035814217530744F4A081B1819D012F5F19
:1017B0003F4F318320838C93268137812F5F3F4FAA
:1017C0003783268314C08B01EC01FB010084F18573
:1017D000E02D0995892BE1F6D80116968D919C9103
:1017E0001797019617969C938E931697CE01DF91CB
:1017F000CF911F910F910895FB01238120FF12C00B
:1018000026FD10C08F3F3FEF930761F082832F7D4D
:101810002064238326813781215031093783268331
:10182000992708958FEF9FEF0895FA01AA2728308E
:1018300051F1203181F1E8946F936E7F6E5F7F4F9D
:101840008F4F9F4FAF4FB1E03ED0B4E03CD0670F19
:10185000781F891F9A1FA11D680F791F8A1F911D6C
:10186000A11D6A0F711D811D911DA11D20D009F4BC
:1018700068943F912AE0269F11243019305D3193FE
:10188000DEF6CF010895462F4770405D4193B3E0E7
:101890000FD0C9F7F6CF462F4F70405D4A3318F08E
:1018A000495D31FD4052419302D0A9F7EACFB4E03F
:1018B000A6959795879577956795BA95C9F70097F7
:1018C0006105710508959B01AC010A2E0694579598
:1018D000479537952795BA95C9F7620F731F841FEF
:1018E000951FA01D08959927882708952F923F924C
:1018F0004F925F926F927F928F929F92AF92BF9220
:10190000CF92DF92EF92FF920F931F93CF93DF93CB
:10191000CDB7DEB7CA1BDB0B0FB6F894DEBF0FBE28
:10192000CDBF09942A88398848885F846E847D8475
:101930008C849B84AA84B984C884DF80EE80FD8077
:101940000C811B81AA81B981CE0FD11D0FB6F894ED
:0E195000DEBF0FBECDBFED010895F894FFCFAE
:10195E00000000010000000000000904000000006B
:10196E00000200000000F803000000002563007074
:10197E00776D3D2564202D3E2064697374616E631E
:10198E0065203D2025642C206572726F723D2564A2
:02199E000A003D
:04000003000003F600
:00000001FF
