:100000000C9434000C9446000C9446000C9446006A
:100010000C94B7000C9446000C9446000C944600D7
:100020000C9446000C9446000C9446000C94460038
:100030000C9446000C9446000C9446000C94460028
:100040000C9446000C9446000C9446000C94460018
:100050000C9446000C9446000C9446000C94460008
:100060000C9446000C94460011241FBECFEFD8E03C
:10007000DEBFCDBF21E0A0E0B1E001C01D92A43001
:10008000B207E1F70E94B4010C94EE010C94000059
:10009000EF92FF920F931F93CF93DF930E949B00E9
:1000A0000E94A900EC01E12CF12C289759F10E9443
:1000B0009B000E94A900EC018C0108501109202F1F
:1000C000220FC8018E199F09820F85362CF48C39B6
:1000D0006CF0181644F401C084E6082E000C990B4D
:1000E0000E9417010DC0882341F001C08CE9082E41
:1000F000000C990B0E943D0103C080E00E94E400C7
:100100007801D3CFDF91CF911F910F91FF90EF90A6
:100110000895E1E8F0E08081826080833D9AE8E61E
:10012000F0E0808182608083D998ECE6F0E0808105
:1001300080618083089578941092850010928400E5
:10014000459A80918400909185004497D0F345981A
:100150000895349BFECF3499FECF80910001909199
:10016000010164E770E00E94C601CB0108951F926F
:100170000F920FB60F9211248F939F93F894809152
:10018000020190910301892B59F41092850010927D
:10019000840081E090E090930301809302010CC001
:1001A00080918400909185009093010180930001DB
:1001B000109203011092020178949F918F910F90F9
:1001C0000FBE0F901F90189594B5906894BD94B58C
:1001D000906294BD94B5936094BD95B5892B85BD0F
:1001E00017BC87B588BD559A569A16BC08952FEF4F
:1001F000AC01249FC001259F900D112464E670E09E
:100200000E94DA01862F08955F9A2898299A2B98E0
:100210002FEFAC01249FC001259F900D112464E6AF
:1002200070E00E94DA0167BD87B588BD08955F9AC6
:1002300028982B9A29982FEFAC01249FC001259F65
:10024000900D112464E670E00E94DA0167BD87B565
:1002500088BD08955F98289A2B9A29982FEFAC01B2
:10026000249FC001259F900D112464E670E00E9438
:10027000DA0167BD87B588BD08955F98289A2B98E5
:10028000299A2FEFAC01249FC001259F900D1124C6
:1002900064E670E00E94DA0167BD87B588BD089505
:1002A000CF93DF93EC010E9417012FEF83ED90E3D2
:1002B000215080409040E1F700C00000CE010E9434
:1002C00004012FEF89E698E1215080409040E1F74A
:1002D00000C00000CE010E9417012FEF83ED90E3D4
:1002E000215080409040E1F700C00000CE010E9404
:1002F00004012FEF89E698E1215080409040E1F71A
:1003000000C00000CE010E9417012FEF83ED90E3A3
:10031000215080409040E1F700C00000CE010E94D3
:1003200004012FEF89E698E1215080409040E1F7E9
:1003300000C00000CE010E9417012FEF83ED90E373
:10034000215080409040E1F700C0000080E0DF9144
:10035000CF910C94E4005F9A28982B9A29988FEFFC
:1003600087BD8CE488BD089578940E94890085E05B
:100370000E94E4002FEF84E39CE0215080409040F5
:10038000E1F700C000000E944800F4CFAA1BBB1B8D
:1003900051E107C0AA1FBB1FA617B70710F0A61B85
:1003A000B70B881F991F5A95A9F780959095BC01A6
:1003B000CD01089597FB072E16F4009407D077FD22
:1003C00009D00E94C60107FC05D03EF490958195A6
:1003D0009F4F0895709561957F4F0895F894FFCFD2
:00000001FF
